{
  "address": "0xDCa4ddaB54DeF2c54bf863619fe9f459659dCe01",
  "abi": [
    {
      "inputs": [
        {
          "internalType": "uint256",
          "name": "_gasAmount",
          "type": "uint256"
        }
      ],
      "stateMutability": "nonpayable",
      "type": "constructor"
    },
    {
      "anonymous": false,
      "inputs": [
        {
          "indexed": false,
          "internalType": "address",
          "name": "",
          "type": "address"
        },
        {
          "indexed": false,
          "internalType": "uint256",
          "name": "",
          "type": "uint256"
        }
      ],
      "name": "Received",
      "type": "event"
    },
    {
      "inputs": [
        {
          "components": [
            {
              "internalType": "address",
              "name": "channelAddress",
              "type": "address"
            },
            {
              "internalType": "address",
              "name": "assetId",
              "type": "address"
            },
            {
              "internalType": "address payable",
              "name": "recipient",
              "type": "address"
            },
            {
              "internalType": "uint256",
              "name": "amount",
              "type": "uint256"
            },
            {
              "internalType": "uint256",
              "name": "nonce",
              "type": "uint256"
            },
            {
              "internalType": "address",
              "name": "callTo",
              "type": "address"
            },
            {
              "internalType": "bytes",
              "name": "callData",
              "type": "bytes"
            }
          ],
          "internalType": "struct WithdrawData",
          "name": "wd",
          "type": "tuple"
        },
        {
          "internalType": "uint256",
          "name": "actualAmount",
          "type": "uint256"
        }
      ],
      "name": "execute",
      "outputs": [],
      "stateMutability": "nonpayable",
      "type": "function"
    },
    {
      "inputs": [
        {
          "internalType": "address",
          "name": "",
          "type": "address"
        }
      ],
      "name": "gasTokenFundedAddress",
      "outputs": [
        {
          "internalType": "bool",
          "name": "",
          "type": "bool"
        }
      ],
      "stateMutability": "view",
      "type": "function"
    },
    {
      "inputs": [
        {
          "components": [
            {
              "internalType": "address",
              "name": "superToken",
              "type": "address"
            },
            {
              "internalType": "address",
              "name": "underlying",
              "type": "address"
            },
            {
              "internalType": "uint256",
              "name": "amount",
              "type": "uint256"
            },
            {
              "internalType": "address",
              "name": "to",
              "type": "address"
            }
          ],
          "internalType": "struct SuperTokenWithdrawHelper.SuperTokenUpgradeData",
          "name": "upgradeData",
          "type": "tuple"
        }
      ],
      "name": "getCallData",
      "outputs": [
        {
          "internalType": "bytes",
          "name": "",
          "type": "bytes"
        }
      ],
      "stateMutability": "pure",
      "type": "function"
    },
    {
      "stateMutability": "payable",
      "type": "receive"
    }
  ],
  "transactionHash": "0x98d07ad0dbd0c82dc7d1578dee542556f5d4a955b9206d319c1f70caa7c4a0d8",
  "args": [
    "10000000000000000"
  ],
  "solcInputHash": "1472250cbd87c4936ab9936afc49843f",
  "bytecode": "0x60a060405234801561001057600080fd5b50604051610c8f380380610c8f83398181016040528101906100329190610055565b80608081815250505061009f565b60008151905061004f81610088565b92915050565b60006020828403121561006757600080fd5b600061007584828501610040565b91505092915050565b6000819050919050565b6100918161007e565b811461009c57600080fd5b50565b608051610bcc6100c36000398061033d52806103c1528061047e5250610bcc6000f3fe6080604052600436106100385760003560e01c806335db9ef81461007d578063bac83775146100ba578063f50cd32c146100f757610078565b36610078577f88a5966d370b9919b20f3e2c13ff65706f196a4e32cc2c12bf57088f88525874333460405161006e9291906108a4565b60405180910390a1005b600080fd5b34801561008957600080fd5b506100a4600480360381019061009f9190610676565b610120565b6040516100b1919061094d565b60405180910390f35b3480156100c657600080fd5b506100e160048036038101906100dc9190610624565b610190565b6040516100ee9190610932565b60405180910390f35b34801561010357600080fd5b5061011e600480360381019061011991906106c8565b6101b0565b005b60606000826040013511610169576040517f08c379a00000000000000000000000000000000000000000000000000000000081526004016101609061096f565b60405180910390fd5b8160405160200161017a919061098f565b6040516020818303038152906040529050919050565b60006020528060005260406000206000915054906101000a900460ff1681565b6101b86104d1565b828060c001906101c891906109aa565b8101906101d5919061069f565b9050600081604001511161021e576040517f08c379a00000000000000000000000000000000000000000000000000000000081526004016102159061096f565b60405180910390fd5b6000816000015190506000826020015190508073ffffffffffffffffffffffffffffffffffffffff1663095ea7b3846000015185604001516040518363ffffffff1660e01b81526004016102739291906108cd565b602060405180830381600087803b15801561028d57600080fd5b505af11580156102a1573d6000803e3d6000fd5b505050506040513d601f19601f820116820180604052508101906102c5919061064d565b508173ffffffffffffffffffffffffffffffffffffffff16635b9d09cc846060015185604001516040518363ffffffff1660e01b81526004016103099291906108f6565b600060405180830381600087803b15801561032357600080fd5b505af1158015610337573d6000803e3d6000fd5b505050507f000000000000000000000000000000000000000000000000000000000000000047101580156103b85750600080846060015173ffffffffffffffffffffffffffffffffffffffff1673ffffffffffffffffffffffffffffffffffffffff16815260200190815260200160002060009054906101000a900460ff16155b80156103fe57507f0000000000000000000000000000000000000000000000000000000000000000836060015173ffffffffffffffffffffffffffffffffffffffff1631105b156104ca576001600080856060015173ffffffffffffffffffffffffffffffffffffffff1673ffffffffffffffffffffffffffffffffffffffff16815260200190815260200160002060006101000a81548160ff021916908315150217905550826060015173ffffffffffffffffffffffffffffffffffffffff166108fc7f00000000000000000000000000000000000000000000000000000000000000009081150290604051600060405180830381858888f193505050501580156104c8573d6000803e3d6000fd5b505b5050505050565b6040518060800160405280600073ffffffffffffffffffffffffffffffffffffffff168152602001600073ffffffffffffffffffffffffffffffffffffffff16815260200160008152602001600073ffffffffffffffffffffffffffffffffffffffff1681525090565b60008135905061054a81610b51565b92915050565b60008151905061055f81610b68565b92915050565b60006080828403121561057757600080fd5b81905092915050565b60006080828403121561059257600080fd5b61059c6080610a01565b905060006105ac8482850161053b565b60008301525060206105c08482850161053b565b60208301525060406105d48482850161060f565b60408301525060606105e88482850161053b565b60608301525092915050565b600060e0828403121561060657600080fd5b81905092915050565b60008135905061061e81610b7f565b92915050565b60006020828403121561063657600080fd5b60006106448482850161053b565b91505092915050565b60006020828403121561065f57600080fd5b600061066d84828501610550565b91505092915050565b60006080828403121561068857600080fd5b600061069684828501610565565b91505092915050565b6000608082840312156106b157600080fd5b60006106bf84828501610580565b91505092915050565b600080604083850312156106db57600080fd5b600083013567ffffffffffffffff8111156106f557600080fd5b610701858286016105f4565b92505060206107128582860161060f565b9150509250929050565b61072581610ad5565b82525050565b61073481610a8d565b82525050565b61074381610a8d565b82525050565b61075281610a9f565b82525050565b600061076382610a32565b61076d8185610a3d565b935061077d818560208601610b0b565b61078681610b40565b840191505092915050565b600061079e600083610a3d565b9150600082019050919050565b60006107b8603c83610a4e565b91507f5375706572546f6b656e576974686472617748656c7065723a204d757374207560008301527f70677261646520736f6d6520616d6f756e74206f6620746f6b656e73000000006020830152604082019050919050565b608082016108226000830183610a5f565b61082f600085018261072b565b5061083d6020830183610a5f565b61084a602085018261072b565b506108586040830183610a76565b6108656040850182610886565b506108736060830183610a5f565b610880606085018261072b565b50505050565b61088f81610acb565b82525050565b61089e81610acb565b82525050565b60006040820190506108b9600083018561071c565b6108c66020830184610895565b9392505050565b60006040820190506108e2600083018561073a565b6108ef6020830184610895565b9392505050565b600060608201905061090b600083018561073a565b6109186020830184610895565b818103604083015261092981610791565b90509392505050565b60006020820190506109476000830184610749565b92915050565b600060208201905081810360008301526109678184610758565b905092915050565b60006020820190508181036000830152610988816107ab565b9050919050565b60006080820190506109a46000830184610811565b92915050565b600080833560016020038436030381126109c357600080fd5b80840192508235915067ffffffffffffffff8211156109e157600080fd5b6020830192506001820236038313156109f957600080fd5b509250929050565b6000604051905081810181811067ffffffffffffffff82111715610a2857610a27610b3e565b5b8060405250919050565b600081519050919050565b600082825260208201905092915050565b600082825260208201905092915050565b6000610a6e602084018461053b565b905092915050565b6000610a85602084018461060f565b905092915050565b6000610a9882610aab565b9050919050565b60008115159050919050565b600073ffffffffffffffffffffffffffffffffffffffff82169050919050565b6000819050919050565b6000610ae082610ae7565b9050919050565b6000610af282610af9565b9050919050565b6000610b0482610aab565b9050919050565b60005b83811015610b29578082015181840152602081019050610b0e565b83811115610b38576000848401525b50505050565bfe5b6000601f19601f8301169050919050565b610b5a81610a8d565b8114610b6557600080fd5b50565b610b7181610a9f565b8114610b7c57600080fd5b50565b610b8881610acb565b8114610b9357600080fd5b5056fea2646970667358221220183677c1089abd4fd7cb8b0039ca999f1a30d82fbab8739580ae7031469e9cd464736f6c63430007030033",
  "devdoc": {
    "kind": "dev",
    "methods": {},
    "version": 1
  },
  "userdoc": {
    "kind": "user",
    "methods": {},
    "version": 1
  },
  "storageLayout": {
    "storage": [
      {
        "astId": 1858,
        "contract": "contracts/SuperTokenWithdrawHelper/SuperTokenWithdrawHelper.sol:SuperTokenWithdrawHelper",
        "label": "gasTokenFundedAddress",
        "offset": 0,
        "slot": "0",
        "type": "t_mapping(t_address,t_bool)"
      }
    ],
    "types": {
      "t_address": {
        "encoding": "inplace",
        "label": "address",
        "numberOfBytes": "20"
      },
      "t_bool": {
        "encoding": "inplace",
        "label": "bool",
        "numberOfBytes": "1"
      },
      "t_mapping(t_address,t_bool)": {
        "encoding": "mapping",
        "key": "t_address",
        "label": "mapping(address => bool)",
        "numberOfBytes": "32",
        "value": "t_bool"
      }
    }
  }
}